{
  "_format": "hh-sol-artifact-1",
  "contractName": "SimpleNFT",
  "sourceName": "contracts/SimpleNFT.sol",
  "abi": [
    {
      "inputs": [
        {
          "internalType": "string",
          "name": "name",
          "type": "string"
        },
        {
          "internalType": "string",
          "name": "symbol",
          "type": "string"
        },
        {
          "internalType": "string",
          "name": "initialBaseURI",
          "type": "string"
        },
        {
          "internalType": "address",
          "name": "initialOwner",
          "type": "address"
        }
      ],
      "stateMutability": "nonpayable",
      "type": "constructor"
    },
    {
      "inputs": [],
      "name": "ERC721EnumerableForbiddenBatchMint",
      "type": "error"
    },
    {
      "inputs": [
        {
          "internalType": "address",
          "name": "sender",
          "type": "address"
        },
        {
          "internalType": "uint256",
          "name": "tokenId",
          "type": "uint256"
        },
        {
          "internalType": "address",
          "name": "owner",
          "type": "address"
        }
      ],
      "name": "ERC721IncorrectOwner",
      "type": "error"
    },
    {
      "inputs": [
        {
          "internalType": "address",
          "name": "operator",
          "type": "address"
        },
        {
          "internalType": "uint256",
          "name": "tokenId",
          "type": "uint256"
        }
      ],
      "name": "ERC721InsufficientApproval",
      "type": "error"
    },
    {
      "inputs": [
        {
          "internalType": "address",
          "name": "approver",
          "type": "address"
        }
      ],
      "name": "ERC721InvalidApprover",
      "type": "error"
    },
    {
      "inputs": [
        {
          "internalType": "address",
          "name": "operator",
          "type": "address"
        }
      ],
      "name": "ERC721InvalidOperator",
      "type": "error"
    },
    {
      "inputs": [
        {
          "internalType": "address",
          "name": "owner",
          "type": "address"
        }
      ],
      "name": "ERC721InvalidOwner",
      "type": "error"
    },
    {
      "inputs": [
        {
          "internalType": "address",
          "name": "receiver",
          "type": "address"
        }
      ],
      "name": "ERC721InvalidReceiver",
      "type": "error"
    },
    {
      "inputs": [
        {
          "internalType": "address",
          "name": "sender",
          "type": "address"
        }
      ],
      "name": "ERC721InvalidSender",
      "type": "error"
    },
    {
      "inputs": [
        {
          "internalType": "uint256",
          "name": "tokenId",
          "type": "uint256"
        }
      ],
      "name": "ERC721NonexistentToken",
      "type": "error"
    },
    {
      "inputs": [
        {
          "internalType": "address",
          "name": "owner",
          "type": "address"
        },
        {
          "internalType": "uint256",
          "name": "index",
          "type": "uint256"
        }
      ],
      "name": "ERC721OutOfBoundsIndex",
      "type": "error"
    },
    {
      "inputs": [
        {
          "internalType": "address",
          "name": "owner",
          "type": "address"
        }
      ],
      "name": "OwnableInvalidOwner",
      "type": "error"
    },
    {
      "inputs": [
        {
          "internalType": "address",
          "name": "account",
          "type": "address"
        }
      ],
      "name": "OwnableUnauthorizedAccount",
      "type": "error"
    },
    {
      "anonymous": false,
      "inputs": [
        {
          "indexed": true,
          "internalType": "address",
          "name": "owner",
          "type": "address"
        },
        {
          "indexed": true,
          "internalType": "address",
          "name": "approved",
          "type": "address"
        },
        {
          "indexed": true,
          "internalType": "uint256",
          "name": "tokenId",
          "type": "uint256"
        }
      ],
      "name": "Approval",
      "type": "event"
    },
    {
      "anonymous": false,
      "inputs": [
        {
          "indexed": true,
          "internalType": "address",
          "name": "owner",
          "type": "address"
        },
        {
          "indexed": true,
          "internalType": "address",
          "name": "operator",
          "type": "address"
        },
        {
          "indexed": false,
          "internalType": "bool",
          "name": "approved",
          "type": "bool"
        }
      ],
      "name": "ApprovalForAll",
      "type": "event"
    },
    {
      "anonymous": false,
      "inputs": [
        {
          "indexed": false,
          "internalType": "string",
          "name": "newBaseURI",
          "type": "string"
        }
      ],
      "name": "BaseURIUpdated",
      "type": "event"
    },
    {
      "anonymous": false,
      "inputs": [],
      "name": "MetadataFrozen",
      "type": "event"
    },
    {
      "anonymous": false,
      "inputs": [
        {
          "indexed": true,
          "internalType": "address",
          "name": "previousOwner",
          "type": "address"
        },
        {
          "indexed": true,
          "internalType": "address",
          "name": "newOwner",
          "type": "address"
        }
      ],
      "name": "OwnershipTransferred",
      "type": "event"
    },
    {
      "anonymous": false,
      "inputs": [
        {
          "indexed": true,
          "internalType": "address",
          "name": "from",
          "type": "address"
        },
        {
          "indexed": true,
          "internalType": "address",
          "name": "to",
          "type": "address"
        },
        {
          "indexed": true,
          "internalType": "uint256",
          "name": "tokenId",
          "type": "uint256"
        }
      ],
      "name": "Transfer",
      "type": "event"
    },
    {
      "inputs": [
        {
          "internalType": "address",
          "name": "to",
          "type": "address"
        },
        {
          "internalType": "uint256",
          "name": "tokenId",
          "type": "uint256"
        }
      ],
      "name": "approve",
      "outputs": [],
      "stateMutability": "nonpayable",
      "type": "function"
    },
    {
      "inputs": [
        {
          "internalType": "address",
          "name": "owner",
          "type": "address"
        }
      ],
      "name": "balanceOf",
      "outputs": [
        {
          "internalType": "uint256",
          "name": "",
          "type": "uint256"
        }
      ],
      "stateMutability": "view",
      "type": "function"
    },
    {
      "inputs": [],
      "name": "freezeMetadata",
      "outputs": [],
      "stateMutability": "nonpayable",
      "type": "function"
    },
    {
      "inputs": [
        {
          "internalType": "uint256",
          "name": "tokenId",
          "type": "uint256"
        }
      ],
      "name": "getApproved",
      "outputs": [
        {
          "internalType": "address",
          "name": "",
          "type": "address"
        }
      ],
      "stateMutability": "view",
      "type": "function"
    },
    {
      "inputs": [
        {
          "internalType": "address",
          "name": "owner",
          "type": "address"
        },
        {
          "internalType": "address",
          "name": "operator",
          "type": "address"
        }
      ],
      "name": "isApprovedForAll",
      "outputs": [
        {
          "internalType": "bool",
          "name": "",
          "type": "bool"
        }
      ],
      "stateMutability": "view",
      "type": "function"
    },
    {
      "inputs": [],
      "name": "metadataFrozen",
      "outputs": [
        {
          "internalType": "bool",
          "name": "",
          "type": "bool"
        }
      ],
      "stateMutability": "view",
      "type": "function"
    },
    {
      "inputs": [],
      "name": "name",
      "outputs": [
        {
          "internalType": "string",
          "name": "",
          "type": "string"
        }
      ],
      "stateMutability": "view",
      "type": "function"
    },
    {
      "inputs": [],
      "name": "owner",
      "outputs": [
        {
          "internalType": "address",
          "name": "",
          "type": "address"
        }
      ],
      "stateMutability": "view",
      "type": "function"
    },
    {
      "inputs": [
        {
          "internalType": "uint256",
          "name": "tokenId",
          "type": "uint256"
        }
      ],
      "name": "ownerOf",
      "outputs": [
        {
          "internalType": "address",
          "name": "",
          "type": "address"
        }
      ],
      "stateMutability": "view",
      "type": "function"
    },
    {
      "inputs": [],
      "name": "renounceOwnership",
      "outputs": [],
      "stateMutability": "nonpayable",
      "type": "function"
    },
    {
      "inputs": [
        {
          "internalType": "address",
          "name": "to",
          "type": "address"
        }
      ],
      "name": "safeMint",
      "outputs": [
        {
          "internalType": "uint256",
          "name": "",
          "type": "uint256"
        }
      ],
      "stateMutability": "nonpayable",
      "type": "function"
    },
    {
      "inputs": [
        {
          "internalType": "address",
          "name": "from",
          "type": "address"
        },
        {
          "internalType": "address",
          "name": "to",
          "type": "address"
        },
        {
          "internalType": "uint256",
          "name": "tokenId",
          "type": "uint256"
        }
      ],
      "name": "safeTransferFrom",
      "outputs": [],
      "stateMutability": "nonpayable",
      "type": "function"
    },
    {
      "inputs": [
        {
          "internalType": "address",
          "name": "from",
          "type": "address"
        },
        {
          "internalType": "address",
          "name": "to",
          "type": "address"
        },
        {
          "internalType": "uint256",
          "name": "tokenId",
          "type": "uint256"
        },
        {
          "internalType": "bytes",
          "name": "data",
          "type": "bytes"
        }
      ],
      "name": "safeTransferFrom",
      "outputs": [],
      "stateMutability": "nonpayable",
      "type": "function"
    },
    {
      "inputs": [
        {
          "internalType": "address",
          "name": "operator",
          "type": "address"
        },
        {
          "internalType": "bool",
          "name": "approved",
          "type": "bool"
        }
      ],
      "name": "setApprovalForAll",
      "outputs": [],
      "stateMutability": "nonpayable",
      "type": "function"
    },
    {
      "inputs": [
        {
          "internalType": "string",
          "name": "newBaseURI",
          "type": "string"
        }
      ],
      "name": "setBaseURI",
      "outputs": [],
      "stateMutability": "nonpayable",
      "type": "function"
    },
    {
      "inputs": [
        {
          "internalType": "bytes4",
          "name": "interfaceId",
          "type": "bytes4"
        }
      ],
      "name": "supportsInterface",
      "outputs": [
        {
          "internalType": "bool",
          "name": "",
          "type": "bool"
        }
      ],
      "stateMutability": "view",
      "type": "function"
    },
    {
      "inputs": [],
      "name": "symbol",
      "outputs": [
        {
          "internalType": "string",
          "name": "",
          "type": "string"
        }
      ],
      "stateMutability": "view",
      "type": "function"
    },
    {
      "inputs": [
        {
          "internalType": "uint256",
          "name": "index",
          "type": "uint256"
        }
      ],
      "name": "tokenByIndex",
      "outputs": [
        {
          "internalType": "uint256",
          "name": "",
          "type": "uint256"
        }
      ],
      "stateMutability": "view",
      "type": "function"
    },
    {
      "inputs": [
        {
          "internalType": "address",
          "name": "owner",
          "type": "address"
        },
        {
          "internalType": "uint256",
          "name": "index",
          "type": "uint256"
        }
      ],
      "name": "tokenOfOwnerByIndex",
      "outputs": [
        {
          "internalType": "uint256",
          "name": "",
          "type": "uint256"
        }
      ],
      "stateMutability": "view",
      "type": "function"
    },
    {
      "inputs": [
        {
          "internalType": "uint256",
          "name": "tokenId",
          "type": "uint256"
        }
      ],
      "name": "tokenURI",
      "outputs": [
        {
          "internalType": "string",
          "name": "",
          "type": "string"
        }
      ],
      "stateMutability": "view",
      "type": "function"
    },
    {
      "inputs": [
        {
          "internalType": "address",
          "name": "owner",
          "type": "address"
        }
      ],
      "name": "tokensOfOwner",
      "outputs": [
        {
          "internalType": "uint256[]",
          "name": "",
          "type": "uint256[]"
        }
      ],
      "stateMutability": "view",
      "type": "function"
    },
    {
      "inputs": [],
      "name": "totalSupply",
      "outputs": [
        {
          "internalType": "uint256",
          "name": "",
          "type": "uint256"
        }
      ],
      "stateMutability": "view",
      "type": "function"
    },
    {
      "inputs": [
        {
          "internalType": "address",
          "name": "from",
          "type": "address"
        },
        {
          "internalType": "address",
          "name": "to",
          "type": "address"
        },
        {
          "internalType": "uint256",
          "name": "tokenId",
          "type": "uint256"
        }
      ],
      "name": "transferFrom",
      "outputs": [],
      "stateMutability": "nonpayable",
      "type": "function"
    },
    {
      "inputs": [
        {
          "internalType": "address",
          "name": "newOwner",
          "type": "address"
        }
      ],
      "name": "transferOwnership",
      "outputs": [],
      "stateMutability": "nonpayable",
      "type": "function"
    }
  ],
  "bytecode": "0x60806040523480156200001157600080fd5b506040516200374d3803806200374d8339818101604052810190620000379190620003c1565b80848481600090816200004b9190620006db565b5080600190816200005d9190620006db565b505050600073ffffffffffffffffffffffffffffffffffffffff168173ffffffffffffffffffffffffffffffffffffffff1603620000d55760006040517f1e4fbdf7000000000000000000000000000000000000000000000000000000008152600401620000cc9190620007d3565b60405180910390fd5b620000e6816200010360201b60201c565b5081600c9081620000f89190620006db565b5050505050620007f0565b6000600a60009054906101000a900473ffffffffffffffffffffffffffffffffffffffff16905081600a60006101000a81548173ffffffffffffffffffffffffffffffffffffffff021916908373ffffffffffffffffffffffffffffffffffffffff1602179055508173ffffffffffffffffffffffffffffffffffffffff168173ffffffffffffffffffffffffffffffffffffffff167f8be0079c531659141344cd1fd0a4f28419497f9722a3daafe3b4186f6b6457e060405160405180910390a35050565b6000604051905090565b600080fd5b600080fd5b600080fd5b600080fd5b6000601f19601f8301169050919050565b7f4e487b7100000000000000000000000000000000000000000000000000000000600052604160045260246000fd5b6200023282620001e7565b810181811067ffffffffffffffff82111715620002545762000253620001f8565b5b80604052505050565b600062000269620001c9565b905062000277828262000227565b919050565b600067ffffffffffffffff8211156200029a5762000299620001f8565b5b620002a582620001e7565b9050602081019050919050565b60005b83811015620002d2578082015181840152602081019050620002b5565b60008484015250505050565b6000620002f5620002ef846200027c565b6200025d565b905082815260208101848484011115620003145762000313620001e2565b5b62000321848285620002b2565b509392505050565b600082601f830112620003415762000340620001dd565b5b815162000353848260208601620002de565b91505092915050565b600073ffffffffffffffffffffffffffffffffffffffff82169050919050565b600062000389826200035c565b9050919050565b6200039b816200037c565b8114620003a757600080fd5b50565b600081519050620003bb8162000390565b92915050565b60008060008060808587031215620003de57620003dd620001d3565b5b600085015167ffffffffffffffff811115620003ff57620003fe620001d8565b5b6200040d8782880162000329565b945050602085015167ffffffffffffffff811115620004315762000430620001d8565b5b6200043f8782880162000329565b935050604085015167ffffffffffffffff811115620004635762000462620001d8565b5b620004718782880162000329565b92505060606200048487828801620003aa565b91505092959194509250565b600081519050919050565b7f4e487b7100000000000000000000000000000000000000000000000000000000600052602260045260246000fd5b60006002820490506001821680620004e357607f821691505b602082108103620004f957620004f86200049b565b5b50919050565b60008190508160005260206000209050919050565b60006020601f8301049050919050565b600082821b905092915050565b600060088302620005637fffffffffffffffffffffffffffffffffffffffffffffffffffffffffffffffff8262000524565b6200056f868362000524565b95508019841693508086168417925050509392505050565b6000819050919050565b6000819050919050565b6000620005bc620005b6620005b08462000587565b62000591565b62000587565b9050919050565b6000819050919050565b620005d8836200059b565b620005f0620005e782620005c3565b84845462000531565b825550505050565b600090565b62000607620005f8565b62000614818484620005cd565b505050565b5b818110156200063c5762000630600082620005fd565b6001810190506200061a565b5050565b601f8211156200068b576200065581620004ff565b620006608462000514565b8101602085101562000670578190505b620006886200067f8562000514565b83018262000619565b50505b505050565b600082821c905092915050565b6000620006b06000198460080262000690565b1980831691505092915050565b6000620006cb83836200069d565b9150826002028217905092915050565b620006e68262000490565b67ffffffffffffffff811115620007025762000701620001f8565b5b6200070e8254620004ca565b6200071b82828562000640565b600060209050601f8311600181146200075357600084156200073e578287015190505b6200074a8582620006bd565b865550620007ba565b601f1984166200076386620004ff565b60005b828110156200078d5784890151825560018201915060208501945060208101905062000766565b86831015620007ad5784890151620007a9601f8916826200069d565b8355505b6001600288020188555050505b505050505050565b620007cd816200037c565b82525050565b6000602082019050620007ea6000830184620007c2565b92915050565b612f4d80620008006000396000f3fe608060405234801561001057600080fd5b50600436106101585760003560e01c806370a08231116100c3578063b88d4fde1161007c578063b88d4fde146103eb578063c87b56dd14610407578063d111515d14610437578063e985e9c514610441578063f2fde38b14610471578063fb3cc6c21461048d57610158565b806370a0823114610329578063715018a6146103595780638462151c146103635780638da5cb5b1461039357806395d89b41146103b1578063a22cb465146103cf57610158565b80632f745c59116101155780632f745c591461023157806340d097c31461026157806342842e0e146102915780634f6ccce7146102ad57806355f804b3146102dd5780636352211e146102f957610158565b806301ffc9a71461015d57806306fdde031461018d578063081812fc146101ab578063095ea7b3146101db57806318160ddd146101f757806323b872dd14610215575b600080fd5b610177600480360381019061017291906121b4565b6104ab565b60405161018491906121fc565b60405180910390f35b610195610525565b6040516101a291906122a7565b60405180910390f35b6101c560048036038101906101c091906122ff565b6105b7565b6040516101d2919061236d565b60405180910390f35b6101f560048036038101906101f091906123b4565b6105d3565b005b6101ff6105e9565b60405161020c9190612403565b60405180910390f35b61022f600480360381019061022a919061241e565b6105f6565b005b61024b600480360381019061024691906123b4565b6106f8565b6040516102589190612403565b60405180910390f35b61027b60048036038101906102769190612471565b6107a1565b6040516102889190612403565b60405180910390f35b6102ab60048036038101906102a6919061241e565b6107d0565b005b6102c760048036038101906102c291906122ff565b6107f0565b6040516102d49190612403565b60405180910390f35b6102f760048036038101906102f291906125d3565b610866565b005b610313600480360381019061030e91906122ff565b610908565b604051610320919061236d565b60405180910390f35b610343600480360381019061033e9190612471565b61091a565b6040516103509190612403565b60405180910390f35b6103616109d4565b005b61037d60048036038101906103789190612471565b6109e8565b60405161038a91906126da565b60405180910390f35b61039b610a96565b6040516103a8919061236d565b60405180910390f35b6103b9610ac0565b6040516103c691906122a7565b60405180910390f35b6103e960048036038101906103e49190612728565b610b52565b005b61040560048036038101906104009190612809565b610b68565b005b610421600480360381019061041c91906122ff565b610b8d565b60405161042e91906122a7565b60405180910390f35b61043f610bf6565b005b61045b6004803603810190610456919061288c565b610c47565b60405161046891906121fc565b60405180910390f35b61048b60048036038101906104869190612471565b610cdb565b005b610495610d61565b6040516104a291906121fc565b60405180910390f35b60007f780e9d63000000000000000000000000000000000000000000000000000000007bffffffffffffffffffffffffffffffffffffffffffffffffffffffff1916827bffffffffffffffffffffffffffffffffffffffffffffffffffffffff1916148061051e575061051d82610d74565b5b9050919050565b606060008054610534906128fb565b80601f0160208091040260200160405190810160405280929190818152602001828054610560906128fb565b80156105ad5780601f10610582576101008083540402835291602001916105ad565b820191906000526020600020905b81548152906001019060200180831161059057829003601f168201915b5050505050905090565b60006105c282610e56565b506105cc82610ede565b9050919050565b6105e582826105e0610f1b565b610f23565b5050565b6000600880549050905090565b600073ffffffffffffffffffffffffffffffffffffffff168273ffffffffffffffffffffffffffffffffffffffff16036106685760006040517f64a0ae9200000000000000000000000000000000000000000000000000000000815260040161065f919061236d565b60405180910390fd5b600061067c8383610677610f1b565b610f35565b90508373ffffffffffffffffffffffffffffffffffffffff168173ffffffffffffffffffffffffffffffffffffffff16146106f2578382826040517f64283d7b0000000000000000000000000000000000000000000000000000000081526004016106e99392919061292c565b60405180910390fd5b50505050565b60006107038361091a565b82106107485782826040517fa57d13dc00000000000000000000000000000000000000000000000000000000815260040161073f929190612963565b60405180910390fd5b600660008473ffffffffffffffffffffffffffffffffffffffff1673ffffffffffffffffffffffffffffffffffffffff168152602001908152602001600020600083815260200190815260200160002054905092915050565b600080600b60008154809291906107b7906129bb565b9190505590506107c78382611052565b80915050919050565b6107eb83838360405180602001604052806000815250610b68565b505050565b60006107fa6105e9565b8210610840576000826040517fa57d13dc000000000000000000000000000000000000000000000000000000008152600401610837929190612963565b60405180910390fd5b6008828154811061085457610853612a03565b5b90600052602060002001549050919050565b61086e611070565b600d60009054906101000a900460ff16156108be576040517f08c379a00000000000000000000000000000000000000000000000000000000081526004016108b590612aa4565b60405180910390fd5b80600c90816108cd9190612c70565b507f6741b2fc379fad678116fe3d4d4b9a1a184ab53ba36b86ad0fa66340b1ab41ad816040516108fd91906122a7565b60405180910390a150565b600061091382610e56565b9050919050565b60008073ffffffffffffffffffffffffffffffffffffffff168273ffffffffffffffffffffffffffffffffffffffff160361098d5760006040517f89c62b64000000000000000000000000000000000000000000000000000000008152600401610984919061236d565b60405180910390fd5b600360008373ffffffffffffffffffffffffffffffffffffffff1673ffffffffffffffffffffffffffffffffffffffff168152602001908152602001600020549050919050565b6109dc611070565b6109e660006110f7565b565b606060006109f58361091a565b905060008167ffffffffffffffff811115610a1357610a126124a8565b5b604051908082528060200260200182016040528015610a415781602001602082028036833780820191505090505b50905060005b82811015610a8b57610a5985826106f8565b828281518110610a6c57610a6b612a03565b5b6020026020010181815250508080610a83906129bb565b915050610a47565b508092505050919050565b6000600a60009054906101000a900473ffffffffffffffffffffffffffffffffffffffff16905090565b606060018054610acf906128fb565b80601f0160208091040260200160405190810160405280929190818152602001828054610afb906128fb565b8015610b485780601f10610b1d57610100808354040283529160200191610b48565b820191906000526020600020905b815481529060010190602001808311610b2b57829003601f168201915b5050505050905090565b610b64610b5d610f1b565b83836111bd565b5050565b610b738484846105f6565b610b87610b7e610f1b565b8585858561132c565b50505050565b6060610b9882610e56565b506000610ba36114dd565b90506000815111610bc35760405180602001604052806000815250610bee565b80610bcd8461156f565b604051602001610bde929190612d7e565b6040516020818303038152906040525b915050919050565b610bfe611070565b6001600d60006101000a81548160ff0219169083151502179055507feef043febddf4e1d1cf1f72ff1407b84e036e805aa0934418cb82095da8d716460405160405180910390a1565b6000600560008473ffffffffffffffffffffffffffffffffffffffff1673ffffffffffffffffffffffffffffffffffffffff16815260200190815260200160002060008373ffffffffffffffffffffffffffffffffffffffff1673ffffffffffffffffffffffffffffffffffffffff16815260200190815260200160002060009054906101000a900460ff16905092915050565b610ce3611070565b600073ffffffffffffffffffffffffffffffffffffffff168173ffffffffffffffffffffffffffffffffffffffff1603610d555760006040517f1e4fbdf7000000000000000000000000000000000000000000000000000000008152600401610d4c919061236d565b60405180910390fd5b610d5e816110f7565b50565b600d60009054906101000a900460ff1681565b60007f80ac58cd000000000000000000000000000000000000000000000000000000007bffffffffffffffffffffffffffffffffffffffffffffffffffffffff1916827bffffffffffffffffffffffffffffffffffffffffffffffffffffffff19161480610e3f57507f5b5e139f000000000000000000000000000000000000000000000000000000007bffffffffffffffffffffffffffffffffffffffffffffffffffffffff1916827bffffffffffffffffffffffffffffffffffffffffffffffffffffffff1916145b80610e4f5750610e4e8261163d565b5b9050919050565b600080610e62836116a7565b9050600073ffffffffffffffffffffffffffffffffffffffff168173ffffffffffffffffffffffffffffffffffffffff1603610ed557826040517f7e273289000000000000000000000000000000000000000000000000000000008152600401610ecc9190612403565b60405180910390fd5b80915050919050565b60006004600083815260200190815260200160002060009054906101000a900473ffffffffffffffffffffffffffffffffffffffff169050919050565b600033905090565b610f3083838360016116e4565b505050565b600080610f438585856118a9565b9050600073ffffffffffffffffffffffffffffffffffffffff168173ffffffffffffffffffffffffffffffffffffffff1603610f8757610f8284611ac3565b610fc6565b8473ffffffffffffffffffffffffffffffffffffffff168173ffffffffffffffffffffffffffffffffffffffff1614610fc557610fc48185611b0c565b5b5b600073ffffffffffffffffffffffffffffffffffffffff168573ffffffffffffffffffffffffffffffffffffffff16036110085761100384611bf7565b611047565b8473ffffffffffffffffffffffffffffffffffffffff168173ffffffffffffffffffffffffffffffffffffffff1614611046576110458585611cc8565b5b5b809150509392505050565b61106c828260405180602001604052806000815250611d53565b5050565b611078610f1b565b73ffffffffffffffffffffffffffffffffffffffff16611096610a96565b73ffffffffffffffffffffffffffffffffffffffff16146110f5576110b9610f1b565b6040517f118cdaa70000000000000000000000000000000000000000000000000000000081526004016110ec919061236d565b60405180910390fd5b565b6000600a60009054906101000a900473ffffffffffffffffffffffffffffffffffffffff16905081600a60006101000a81548173ffffffffffffffffffffffffffffffffffffffff021916908373ffffffffffffffffffffffffffffffffffffffff1602179055508173ffffffffffffffffffffffffffffffffffffffff168173ffffffffffffffffffffffffffffffffffffffff167f8be0079c531659141344cd1fd0a4f28419497f9722a3daafe3b4186f6b6457e060405160405180910390a35050565b600073ffffffffffffffffffffffffffffffffffffffff168273ffffffffffffffffffffffffffffffffffffffff160361122e57816040517f5b08ba18000000000000000000000000000000000000000000000000000000008152600401611225919061236d565b60405180910390fd5b80600560008573ffffffffffffffffffffffffffffffffffffffff1673ffffffffffffffffffffffffffffffffffffffff16815260200190815260200160002060008473ffffffffffffffffffffffffffffffffffffffff1673ffffffffffffffffffffffffffffffffffffffff16815260200190815260200160002060006101000a81548160ff0219169083151502179055508173ffffffffffffffffffffffffffffffffffffffff168373ffffffffffffffffffffffffffffffffffffffff167f17307eab39ab6107e8899845ad3d59bd9653f200f220920489ca2b5937696c318360405161131f91906121fc565b60405180910390a3505050565b60008373ffffffffffffffffffffffffffffffffffffffff163b11156114d6578273ffffffffffffffffffffffffffffffffffffffff1663150b7a02868685856040518563ffffffff1660e01b815260040161138b9493929190612df7565b6020604051808303816000875af19250505080156113c757506040513d601f19601f820116820180604052508101906113c49190612e58565b60015b61144b573d80600081146113f7576040519150601f19603f3d011682016040523d82523d6000602084013e6113fc565b606091505b50600081510361144357836040517f64a0ae9200000000000000000000000000000000000000000000000000000000815260040161143a919061236d565b60405180910390fd5b805160208201fd5b63150b7a0260e01b7bffffffffffffffffffffffffffffffffffffffffffffffffffffffff1916817bffffffffffffffffffffffffffffffffffffffffffffffffffffffff1916146114d457836040517f64a0ae920000000000000000000000000000000000000000000000000000000081526004016114cb919061236d565b60405180910390fd5b505b5050505050565b6060600c80546114ec906128fb565b80601f0160208091040260200160405190810160405280929190818152602001828054611518906128fb565b80156115655780601f1061153a57610100808354040283529160200191611565565b820191906000526020600020905b81548152906001019060200180831161154857829003601f168201915b5050505050905090565b60606000600161157e84611d77565b01905060008167ffffffffffffffff81111561159d5761159c6124a8565b5b6040519080825280601f01601f1916602001820160405280156115cf5781602001600182028036833780820191505090505b509050600082602083010190505b600115611632578080600190039150507f3031323334353637383961626364656600000000000000000000000000000000600a86061a8153600a858161162657611625612e85565b5b049450600085036115dd575b819350505050919050565b60007f01ffc9a7000000000000000000000000000000000000000000000000000000007bffffffffffffffffffffffffffffffffffffffffffffffffffffffff1916827bffffffffffffffffffffffffffffffffffffffffffffffffffffffff1916149050919050565b60006002600083815260200190815260200160002060009054906101000a900473ffffffffffffffffffffffffffffffffffffffff169050919050565b808061171d5750600073ffffffffffffffffffffffffffffffffffffffff168273ffffffffffffffffffffffffffffffffffffffff1614155b1561185157600061172d84610e56565b9050600073ffffffffffffffffffffffffffffffffffffffff168373ffffffffffffffffffffffffffffffffffffffff161415801561179857508273ffffffffffffffffffffffffffffffffffffffff168173ffffffffffffffffffffffffffffffffffffffff1614155b80156117ab57506117a98184610c47565b155b156117ed57826040517fa9fbf51f0000000000000000000000000000000000000000000000000000000081526004016117e4919061236d565b60405180910390fd5b811561184f57838573ffffffffffffffffffffffffffffffffffffffff168273ffffffffffffffffffffffffffffffffffffffff167f8c5be1e5ebec7d5bd14f71427d1e84f3dd0314c0f7b2291e5b200ac8c7c3b92560405160405180910390a45b505b836004600085815260200190815260200160002060006101000a81548173ffffffffffffffffffffffffffffffffffffffff021916908373ffffffffffffffffffffffffffffffffffffffff16021790555050505050565b6000806118b5846116a7565b9050600073ffffffffffffffffffffffffffffffffffffffff168373ffffffffffffffffffffffffffffffffffffffff16146118f7576118f6818486611eca565b5b600073ffffffffffffffffffffffffffffffffffffffff168173ffffffffffffffffffffffffffffffffffffffff1614611988576119396000856000806116e4565b6001600360008373ffffffffffffffffffffffffffffffffffffffff1673ffffffffffffffffffffffffffffffffffffffff168152602001908152602001600020600082825403925050819055505b600073ffffffffffffffffffffffffffffffffffffffff168573ffffffffffffffffffffffffffffffffffffffff1614611a0b576001600360008773ffffffffffffffffffffffffffffffffffffffff1673ffffffffffffffffffffffffffffffffffffffff168152602001908152602001600020600082825401925050819055505b846002600086815260200190815260200160002060006101000a81548173ffffffffffffffffffffffffffffffffffffffff021916908373ffffffffffffffffffffffffffffffffffffffff160217905550838573ffffffffffffffffffffffffffffffffffffffff168273ffffffffffffffffffffffffffffffffffffffff167fddf252ad1be2c89b69c2b068fc378daa952ba7f163c4a11628f55a4df523b3ef60405160405180910390a4809150509392505050565b6008805490506009600083815260200190815260200160002081905550600881908060018154018082558091505060019003906000526020600020016000909190919091505550565b6000611b178361091a565b90506000600760008481526020019081526020016000205490506000600660008673ffffffffffffffffffffffffffffffffffffffff1673ffffffffffffffffffffffffffffffffffffffff1681526020019081526020016000209050828214611bc35760008160008581526020019081526020016000205490508082600085815260200190815260200160002081905550826007600083815260200190815260200160002081905550505b6007600085815260200190815260200160002060009055806000848152602001908152602001600020600090555050505050565b60006001600880549050611c0b9190612eb4565b9050600060096000848152602001908152602001600020549050600060088381548110611c3b57611c3a612a03565b5b906000526020600020015490508060088381548110611c5d57611c5c612a03565b5b906000526020600020018190555081600960008381526020019081526020016000208190555060096000858152602001908152602001600020600090556008805480611cac57611cab612ee8565b5b6001900381819060005260206000200160009055905550505050565b60006001611cd58461091a565b611cdf9190612eb4565b905081600660008573ffffffffffffffffffffffffffffffffffffffff1673ffffffffffffffffffffffffffffffffffffffff168152602001908152602001600020600083815260200190815260200160002081905550806007600084815260200190815260200160002081905550505050565b611d5d8383611f8e565b611d72611d68610f1b565b600085858561132c565b505050565b600080600090507a184f03e93ff9f4daa797ed6e38ed64bf6a1f0100000000000000008310611dd5577a184f03e93ff9f4daa797ed6e38ed64bf6a1f0100000000000000008381611dcb57611dca612e85565b5b0492506040810190505b6d04ee2d6d415b85acef81000000008310611e12576d04ee2d6d415b85acef81000000008381611e0857611e07612e85565b5b0492506020810190505b662386f26fc100008310611e4157662386f26fc100008381611e3757611e36612e85565b5b0492506010810190505b6305f5e1008310611e6a576305f5e1008381611e6057611e5f612e85565b5b0492506008810190505b6127108310611e8f576127108381611e8557611e84612e85565b5b0492506004810190505b60648310611eb25760648381611ea857611ea7612e85565b5b0492506002810190505b600a8310611ec1576001810190505b80915050919050565b611ed5838383612087565b611f8957600073ffffffffffffffffffffffffffffffffffffffff168373ffffffffffffffffffffffffffffffffffffffff1603611f4a57806040517f7e273289000000000000000000000000000000000000000000000000000000008152600401611f419190612403565b60405180910390fd5b81816040517f177e802f000000000000000000000000000000000000000000000000000000008152600401611f80929190612963565b60405180910390fd5b505050565b600073ffffffffffffffffffffffffffffffffffffffff168273ffffffffffffffffffffffffffffffffffffffff16036120005760006040517f64a0ae92000000000000000000000000000000000000000000000000000000008152600401611ff7919061236d565b60405180910390fd5b600061200e83836000610f35565b9050600073ffffffffffffffffffffffffffffffffffffffff168173ffffffffffffffffffffffffffffffffffffffff16146120825760006040517f73c6ac6e000000000000000000000000000000000000000000000000000000008152600401612079919061236d565b60405180910390fd5b505050565b60008073ffffffffffffffffffffffffffffffffffffffff168373ffffffffffffffffffffffffffffffffffffffff161415801561213f57508273ffffffffffffffffffffffffffffffffffffffff168473ffffffffffffffffffffffffffffffffffffffff16148061210057506120ff8484610c47565b5b8061213e57508273ffffffffffffffffffffffffffffffffffffffff1661212683610ede565b73ffffffffffffffffffffffffffffffffffffffff16145b5b90509392505050565b6000604051905090565b600080fd5b600080fd5b60007fffffffff0000000000000000000000000000000000000000000000000000000082169050919050565b6121918161215c565b811461219c57600080fd5b50565b6000813590506121ae81612188565b92915050565b6000602082840312156121ca576121c9612152565b5b60006121d88482850161219f565b91505092915050565b60008115159050919050565b6121f6816121e1565b82525050565b600060208201905061221160008301846121ed565b92915050565b600081519050919050565b600082825260208201905092915050565b60005b83811015612251578082015181840152602081019050612236565b60008484015250505050565b6000601f19601f8301169050919050565b600061227982612217565b6122838185612222565b9350612293818560208601612233565b61229c8161225d565b840191505092915050565b600060208201905081810360008301526122c1818461226e565b905092915050565b6000819050919050565b6122dc816122c9565b81146122e757600080fd5b50565b6000813590506122f9816122d3565b92915050565b60006020828403121561231557612314612152565b5b6000612323848285016122ea565b91505092915050565b600073ffffffffffffffffffffffffffffffffffffffff82169050919050565b60006123578261232c565b9050919050565b6123678161234c565b82525050565b6000602082019050612382600083018461235e565b92915050565b6123918161234c565b811461239c57600080fd5b50565b6000813590506123ae81612388565b92915050565b600080604083850312156123cb576123ca612152565b5b60006123d98582860161239f565b92505060206123ea858286016122ea565b9150509250929050565b6123fd816122c9565b82525050565b600060208201905061241860008301846123f4565b92915050565b60008060006060848603121561243757612436612152565b5b60006124458682870161239f565b93505060206124568682870161239f565b9250506040612467868287016122ea565b9150509250925092565b60006020828403121561248757612486612152565b5b60006124958482850161239f565b91505092915050565b600080fd5b600080fd5b7f4e487b7100000000000000000000000000000000000000000000000000000000600052604160045260246000fd5b6124e08261225d565b810181811067ffffffffffffffff821117156124ff576124fe6124a8565b5b80604052505050565b6000612512612148565b905061251e82826124d7565b919050565b600067ffffffffffffffff82111561253e5761253d6124a8565b5b6125478261225d565b9050602081019050919050565b82818337600083830152505050565b600061257661257184612523565b612508565b905082815260208101848484011115612592576125916124a3565b5b61259d848285612554565b509392505050565b600082601f8301126125ba576125b961249e565b5b81356125ca848260208601612563565b91505092915050565b6000602082840312156125e9576125e8612152565b5b600082013567ffffffffffffffff81111561260757612606612157565b5b612613848285016125a5565b91505092915050565b600081519050919050565b600082825260208201905092915050565b6000819050602082019050919050565b612651816122c9565b82525050565b60006126638383612648565b60208301905092915050565b6000602082019050919050565b60006126878261261c565b6126918185612627565b935061269c83612638565b8060005b838110156126cd5781516126b48882612657565b97506126bf8361266f565b9250506001810190506126a0565b5085935050505092915050565b600060208201905081810360008301526126f4818461267c565b905092915050565b612705816121e1565b811461271057600080fd5b50565b600081359050612722816126fc565b92915050565b6000806040838503121561273f5761273e612152565b5b600061274d8582860161239f565b925050602061275e85828601612713565b9150509250929050565b600067ffffffffffffffff821115612783576127826124a8565b5b61278c8261225d565b9050602081019050919050565b60006127ac6127a784612768565b612508565b9050828152602081018484840111156127c8576127c76124a3565b5b6127d3848285612554565b509392505050565b600082601f8301126127f0576127ef61249e565b5b8135612800848260208601612799565b91505092915050565b6000806000806080858703121561282357612822612152565b5b60006128318782880161239f565b94505060206128428782880161239f565b9350506040612853878288016122ea565b925050606085013567ffffffffffffffff81111561287457612873612157565b5b612880878288016127db565b91505092959194509250565b600080604083850312156128a3576128a2612152565b5b60006128b18582860161239f565b92505060206128c28582860161239f565b9150509250929050565b7f4e487b7100000000000000000000000000000000000000000000000000000000600052602260045260246000fd5b6000600282049050600182168061291357607f821691505b602082108103612926576129256128cc565b5b50919050565b6000606082019050612941600083018661235e565b61294e60208301856123f4565b61295b604083018461235e565b949350505050565b6000604082019050612978600083018561235e565b61298560208301846123f4565b9392505050565b7f4e487b7100000000000000000000000000000000000000000000000000000000600052601160045260246000fd5b60006129c6826122c9565b91507fffffffffffffffffffffffffffffffffffffffffffffffffffffffffffffffff82036129f8576129f761298c565b5b600182019050919050565b7f4e487b7100000000000000000000000000000000000000000000000000000000600052603260045260246000fd5b7f4d6574616461746120686173206265656e2066726f7a656e20616e642063616e60008201527f6e6f74206265206368616e676564000000000000000000000000000000000000602082015250565b6000612a8e602e83612222565b9150612a9982612a32565b604082019050919050565b60006020820190508181036000830152612abd81612a81565b9050919050565b60008190508160005260206000209050919050565b60006020601f8301049050919050565b600082821b905092915050565b600060088302612b267fffffffffffffffffffffffffffffffffffffffffffffffffffffffffffffffff82612ae9565b612b308683612ae9565b95508019841693508086168417925050509392505050565b6000819050919050565b6000612b6d612b68612b63846122c9565b612b48565b6122c9565b9050919050565b6000819050919050565b612b8783612b52565b612b9b612b9382612b74565b848454612af6565b825550505050565b600090565b612bb0612ba3565b612bbb818484612b7e565b505050565b5b81811015612bdf57612bd4600082612ba8565b600181019050612bc1565b5050565b601f821115612c2457612bf581612ac4565b612bfe84612ad9565b81016020851015612c0d578190505b612c21612c1985612ad9565b830182612bc0565b50505b505050565b600082821c905092915050565b6000612c4760001984600802612c29565b1980831691505092915050565b6000612c608383612c36565b9150826002028217905092915050565b612c7982612217565b67ffffffffffffffff811115612c9257612c916124a8565b5b612c9c82546128fb565b612ca7828285612be3565b600060209050601f831160018114612cda5760008415612cc8578287015190505b612cd28582612c54565b865550612d3a565b601f198416612ce886612ac4565b60005b82811015612d1057848901518255600182019150602085019450602081019050612ceb565b86831015612d2d5784890151612d29601f891682612c36565b8355505b6001600288020188555050505b505050505050565b600081905092915050565b6000612d5882612217565b612d628185612d42565b9350612d72818560208601612233565b80840191505092915050565b6000612d8a8285612d4d565b9150612d968284612d4d565b91508190509392505050565b600081519050919050565b600082825260208201905092915050565b6000612dc982612da2565b612dd38185612dad565b9350612de3818560208601612233565b612dec8161225d565b840191505092915050565b6000608082019050612e0c600083018761235e565b612e19602083018661235e565b612e2660408301856123f4565b8181036060830152612e388184612dbe565b905095945050505050565b600081519050612e5281612188565b92915050565b600060208284031215612e6e57612e6d612152565b5b6000612e7c84828501612e43565b91505092915050565b7f4e487b7100000000000000000000000000000000000000000000000000000000600052601260045260246000fd5b6000612ebf826122c9565b9150612eca836122c9565b9250828203905081811115612ee257612ee161298c565b5b92915050565b7f4e487b7100000000000000000000000000000000000000000000000000000000600052603160045260246000fdfea2646970667358221220fbac15a1786d0f6573fcbc3f6059bfe5372f039df187cff50a0cd278b392074164736f6c63430008140033",
  "linkReferences": {},
  "deployedLinkReferences": {}
}